{
  "transactions": [
    {
      "hash": "0x6f67789ac0179438d390655fdac1d399d5e90ec265990864fa923f93948cdf94",
      "transactionType": "CREATE",
      "contractName": "MockDEX",
      "contractAddress": "0x4961ddb55265bcd4e230b2aceaf257a745e73de0",
      "function": null,
      "arguments": [
        "0x61a33158B1541AD0fc87DF41075ac6A40CC52498"
      ],
      "transaction": {
        "from": "0x5d4a329b262ac7a1d9ae0f4c54171df61e2c0b69",
        "gas": "0x119269",
        "value": "0x0",
        "input": "0x60a060405234801561000f575f80fd5b50604051610fa7380380610fa783398101604081905261002e9161003f565b6001600160a01b031660805261006c565b5f6020828403121561004f575f80fd5b81516001600160a01b0381168114610065575f80fd5b9392505050565b608051610f076100a05f395f81816101ec0152818161038a01528181610531015281816108a10152610ae40152610f075ff3fe60806040526004361061009d575f3560e01c80639db4aa04116100625780639db4aa0414610149578063b2ff241014610174578063cbcb317114610193578063d62ccb3f146101a7578063f5f35d14146101bc578063fc0c546a146101db575f80fd5b8063104ca909146100a857806315d6dae9146100ce5780633a98ef39146100ed57806351c6590a146101025780639c8f9f2314610115575f80fd5b366100a457005b5f80fd5b6100bb6100b6366004610db6565b610226565b6040519081526020015b60405180910390f35b3480156100d9575f80fd5b506100bb6100e8366004610db6565b610460565b3480156100f8575f80fd5b506100bb60035481565b6100bb610110366004610db6565b6104c2565b348015610120575f80fd5b5061013461012f366004610db6565b61072d565b604080519283526020830191909152016100c5565b348015610154575f80fd5b506100bb610163366004610dcd565b60026020525f908152604090205481565b34801561017f575f80fd5b506100bb61018e366004610db6565b610a2b565b34801561019e575f80fd5b506100bb5f5481565b3480156101b2575f80fd5b506100bb60015481565b3480156101c7575f80fd5b506100bb6101d6366004610df3565b610a7b565b3480156101e6575f80fd5b5061020e7f000000000000000000000000000000000000000000000000000000000000000081565b6040516001600160a01b0390911681526020016100c5565b5f8034116102705760405162461bcd60e51b8152602060048201526012602482015271125b9d985b1a590811551208185b5bdd5b9d60721b60448201526064015b60405180910390fd5b5f6103e8610280346103e5610e27565b61028a9190610e44565b90508060015461029a9190610e63565b815f546102a79190610e27565b6102b19190610e44565b9150828210156102f75760405162461bcd60e51b81526020600482015260116024820152700a6d8d2e0e0c2ceca40e8dede40d0d2ced607b1b6044820152606401610267565b5f548211156103415760405162461bcd60e51b8152602060048201526016602482015275496e73756666696369656e74206c697175696469747960501b6044820152606401610267565b3460015f8282546103529190610e63565b92505081905550815f808282546103699190610e76565b909155505060405163a9059cbb60e01b8152336004820152602481018390527f00000000000000000000000000000000000000000000000000000000000000006001600160a01b03169063a9059cbb906044016020604051808303815f875af11580156103d8573d5f803e3d5ffd5b505050506040513d601f19601f820116820180604052508101906103fc9190610e89565b6104185760405162461bcd60e51b815260040161026790610ea8565b604080515f815234602082015290810183905233907fbfd50a04f1e6e4aee344f5d0e7f15d74d0dbb58cd1f711daa6463094ca9508cd9060600160405180910390a250919050565b5f81158061046e5750600154155b1561047a57505f919050565b5f6103e861048a846103e5610e27565b6104949190610e44565b9050806001546104a49190610e63565b815f546104b19190610e27565b6104bb9190610e44565b9392505050565b5f80821180156104d157505f34115b61050f5760405162461bcd60e51b815260206004820152600f60248201526e496e76616c696420616d6f756e747360881b6044820152606401610267565b6040516323b872dd60e01b8152336004820152306024820152604481018390527f00000000000000000000000000000000000000000000000000000000000000006001600160a01b0316906323b872dd906064016020604051808303815f875af115801561057f573d5f803e3d5ffd5b505050506040513d601f19601f820116820180604052508101906105a39190610e89565b6105bf5760405162461bcd60e51b815260040161026790610ea8565b6003545f036105e1576105da6105d53484610e27565b610d48565b905061062f565b5f80546003546105f19085610e27565b6105fb9190610e44565b90505f6001546003543461060f9190610e27565b6106199190610e44565b9050808210610628578061062a565b815b925050505b5f811161067e5760405162461bcd60e51b815260206004820152601d60248201527f496e73756666696369656e74206c6971756964697479206d696e7465640000006044820152606401610267565b815f8082825461068e9190610e63565b925050819055503460015f8282546106a69190610e63565b9091555050335f90815260026020526040812080548392906106c9908490610e63565b925050819055508060035f8282546106e19190610e63565b90915550506040805183815234602082015290810182905233907f64b83944e79c3ce8d4c297411de637c3e102d064677aac0c163976ebdcd6f50e9060600160405180910390a2919050565b5f805f8311801561074c5750335f908152600260205260409020548311155b6107895760405162461bcd60e51b815260206004820152600e60248201526d496e76616c69642073686172657360901b6044820152606401610267565b6003545f546107989085610e27565b6107a29190610e44565b9150600354600154846107b59190610e27565b6107bf9190610e44565b90505f821180156107cf57505f81115b61081b5760405162461bcd60e51b815260206004820152601d60248201527f496e73756666696369656e74206c6971756964697479206275726e65640000006044820152606401610267565b335f9081526002602052604081208054859290610839908490610e76565b925050819055508260035f8282546108519190610e76565b92505081905550815f808282546108689190610e76565b925050819055508060015f8282546108809190610e76565b909155505060405163a9059cbb60e01b8152336004820152602481018390527f00000000000000000000000000000000000000000000000000000000000000006001600160a01b03169063a9059cbb906044016020604051808303815f875af11580156108ef573d5f803e3d5ffd5b505050506040513d601f19601f820116820180604052508101906109139190610e89565b6109575760405162461bcd60e51b8152602060048201526015602482015274151bdad95b881d1c985b9cd9995c8819985a5b1959605a1b6044820152606401610267565b6040515f90339083908381818185875af1925050503d805f8114610996576040519150601f19603f3d011682016040523d82523d5f602084013e61099b565b606091505b50509050806109e25760405162461bcd60e51b8152602060048201526013602482015272115512081d1c985b9cd9995c8819985a5b1959606a1b6044820152606401610267565b604080518481526020810184905290810185905233907f1dc8bb69df2b8e91fbdcbfcf93d951b3f0000f085a95fe3f7946d6161439245d9060600160405180910390a250915091565b5f811580610a3857505f54155b15610a4457505f919050565b5f6103e8610a54846103e5610e27565b610a5e9190610e44565b9050805f54610a6d9190610e63565b816001546104b19190610e27565b5f808311610ac25760405162461bcd60e51b8152602060048201526014602482015273125b9d985b1a59081d1bdad95b88185b5bdd5b9d60621b6044820152606401610267565b6040516323b872dd60e01b8152336004820152306024820152604481018490527f00000000000000000000000000000000000000000000000000000000000000006001600160a01b0316906323b872dd906064016020604051808303815f875af1158015610b32573d5f803e3d5ffd5b505050506040513d601f19601f82011682018060405250810190610b569190610e89565b610b725760405162461bcd60e51b815260040161026790610ea8565b5f6103e8610b82856103e5610e27565b610b8c9190610e44565b9050805f54610b9b9190610e63565b81600154610ba99190610e27565b610bb39190610e44565b915082821015610bf95760405162461bcd60e51b81526020600482015260116024820152700a6d8d2e0e0c2ceca40e8dede40d0d2ced607b1b6044820152606401610267565b600154821115610c445760405162461bcd60e51b8152602060048201526016602482015275496e73756666696369656e74206c697175696469747960501b6044820152606401610267565b835f80828254610c549190610e63565b925050819055508160015f828254610c6c9190610e76565b90915550506040515f90339084908381818185875af1925050503d805f8114610cb0576040519150601f19603f3d011682016040523d82523d5f602084013e610cb5565b606091505b5050905080610cfc5760405162461bcd60e51b8152602060048201526013602482015272115512081d1c985b9cd9995c8819985a5b1959606a1b6044820152606401610267565b60408051600181526020810187905290810184905233907fbfd50a04f1e6e4aee344f5d0e7f15d74d0dbb58cd1f711daa6463094ca9508cd9060600160405180910390a2505092915050565b5f6003821115610da75750805f610d60600283610e44565b610d6b906001610e63565b90505b81811015610da157905080600281610d868186610e44565b610d909190610e63565b610d9a9190610e44565b9050610d6e565b50919050565b8115610db1575060015b919050565b5f60208284031215610dc6575f80fd5b5035919050565b5f60208284031215610ddd575f80fd5b81356001600160a01b03811681146104bb575f80fd5b5f8060408385031215610e04575f80fd5b50508035926020909101359150565b634e487b7160e01b5f52601160045260245ffd5b8082028115828204841417610e3e57610e3e610e13565b92915050565b5f82610e5e57634e487b7160e01b5f52601260045260245ffd5b500490565b80820180821115610e3e57610e3e610e13565b81810381811115610e3e57610e3e610e13565b5f60208284031215610e99575f80fd5b815180151581146104bb575f80fd5b6020808252600f908201526e151c985b9cd9995c8819985a5b1959608a1b60408201526060019056fea2646970667358221220d1ed161e09cf847e25bb35ec4779100a903a3193cd7acd9acf25e969f621cdd264736f6c6343000814003300000000000000000000000061a33158b1541ad0fc87df41075ac6a40cc52498",
        "nonce": "0x32",
        "chainId": "0xaa36a7"
      },
      "additionalContracts": [],
      "isFixedGasLimit": false
    },
    {
      "hash": "0x4a3939c6546eeb80dee7f6743ec9579a0e5a75133fcc85e921c0928259d33150",
      "transactionType": "CALL",
      "contractName": null,
      "contractAddress": "0x61a33158b1541ad0fc87df41075ac6a40cc52498",
      "function": "approve(address,uint256)",
      "arguments": [
        "0x4961dDb55265Bcd4E230B2aceaf257A745e73de0",
        "210000000000000000000000"
      ],
      "transaction": {
        "from": "0x5d4a329b262ac7a1d9ae0f4c54171df61e2c0b69",
        "to": "0x61a33158b1541ad0fc87df41075ac6a40cc52498",
        "gas": "0x10938",
        "value": "0x0",
        "input": "0x095ea7b30000000000000000000000004961ddb55265bcd4e230b2aceaf257a745e73de0000000000000000000000000000000000000000000002c781f708c509f400000",
        "nonce": "0x33",
        "chainId": "0xaa36a7"
      },
      "additionalContracts": [],
      "isFixedGasLimit": false
    },
    {
      "hash": "0x6aac883a7ff58400c73cf5f003379fc7bd510e4fa43c82a3d0d801a0d1e3a4bd",
      "transactionType": "CALL",
      "contractName": "MockDEX",
      "contractAddress": "0x4961ddb55265bcd4e230b2aceaf257a745e73de0",
      "function": "addLiquidity(uint256)",
      "arguments": [
        "210000000000000000000000"
      ],
      "transaction": {
        "from": "0x5d4a329b262ac7a1d9ae0f4c54171df61e2c0b69",
        "to": "0x4961ddb55265bcd4e230b2aceaf257a745e73de0",
        "gas": "0x3c6f2",
        "value": "0x16345785d8a0000",
        "input": "0x51c6590a000000000000000000000000000000000000000000002c781f708c509f400000",
        "nonce": "0x34",
        "chainId": "0xaa36a7"
      },
      "additionalContracts": [],
      "isFixedGasLimit": false
    }
  ],
  "receipts": [
    {
      "status": "0x1",
      "cumulativeGasUsed": "0x87abad",
      "logs": [],
      "logsBloom": "0x00000000000000000000000000000000000000000000000000000000000000000000000000000000000000000000000000000000000000000000000000000000000000000000000000000000000000000000000000000000000000000000000000000000000000000000000000000000000000000000000000000000000000000000000000000000000000000000000000000000000000000000000000000000000000000000000000000000000000000000000000000000000000000000000000000000000000000000000000000000000000000000000000000000000000000000000000000000000000000000000000000000000000000000000000000000",
      "type": "0x2",
      "transactionHash": "0x6f67789ac0179438d390655fdac1d399d5e90ec265990864fa923f93948cdf94",
      "transactionIndex": "0x53",
      "blockHash": "0xac1661f350b19a629b934258dc43a936787af19d2f972072af87da06f8758fa8",
      "blockNumber": "0x8fc85b",
      "gasUsed": "0xd8451",
      "effectiveGasPrice": "0xf424a",
      "from": "0x5d4a329b262ac7a1d9ae0f4c54171df61e2c0b69",
      "to": null,
      "contractAddress": "0x4961ddb55265bcd4e230b2aceaf257a745e73de0"
    },
    {
      "status": "0x1",
      "cumulativeGasUsed": "0x8d1ac6",
      "logs": [
        {
          "address": "0x61a33158b1541ad0fc87df41075ac6a40cc52498",
          "topics": [
            "0x8c5be1e5ebec7d5bd14f71427d1e84f3dd0314c0f7b2291e5b200ac8c7c3b925",
            "0x0000000000000000000000005d4a329b262ac7a1d9ae0f4c54171df61e2c0b69",
            "0x0000000000000000000000004961ddb55265bcd4e230b2aceaf257a745e73de0"
          ],
          "data": "0x000000000000000000000000000000000000000000002c781f708c509f400000",
          "blockHash": "0xac1661f350b19a629b934258dc43a936787af19d2f972072af87da06f8758fa8",
          "blockNumber": "0x8fc85b",
          "blockTimestamp": "0x68f0b008",
          "transactionHash": "0x4a3939c6546eeb80dee7f6743ec9579a0e5a75133fcc85e921c0928259d33150",
          "transactionIndex": "0x59",
          "logIndex": "0x88",
          "removed": false
        }
      ],
      "logsBloom": "0x00000000000000000000000000000000000000000000000000000000000000000000000000000000000000000000000000000000000000000000000000200000000000000000000000400000000000000800000000000000000000000000000000000000000008000000100000000000000000000000000000000000000000000000000000000000000000040000000000000000200000000000000000040000020000000000000000000000000000000000000000000000000000000000000000000000002000000000000000000000000000000000000000000000000000000010800000000000000000000000000000000000000000000000000000000000",
      "type": "0x2",
      "transactionHash": "0x4a3939c6546eeb80dee7f6743ec9579a0e5a75133fcc85e921c0928259d33150",
      "transactionIndex": "0x59",
      "blockHash": "0xac1661f350b19a629b934258dc43a936787af19d2f972072af87da06f8758fa8",
      "blockNumber": "0x8fc85b",
      "gasUsed": "0xb559",
      "effectiveGasPrice": "0xf424a",
      "from": "0x5d4a329b262ac7a1d9ae0f4c54171df61e2c0b69",
      "to": "0x61a33158b1541ad0fc87df41075ac6a40cc52498",
      "contractAddress": null
    },
    {
      "status": "0x1",
      "cumulativeGasUsed": "0x8fafef",
      "logs": [
        {
          "address": "0x61a33158b1541ad0fc87df41075ac6a40cc52498",
          "topics": [
            "0xddf252ad1be2c89b69c2b068fc378daa952ba7f163c4a11628f55a4df523b3ef",
            "0x0000000000000000000000005d4a329b262ac7a1d9ae0f4c54171df61e2c0b69",
            "0x0000000000000000000000004961ddb55265bcd4e230b2aceaf257a745e73de0"
          ],
          "data": "0x000000000000000000000000000000000000000000002c781f708c509f400000",
          "blockHash": "0xac1661f350b19a629b934258dc43a936787af19d2f972072af87da06f8758fa8",
          "blockNumber": "0x8fc85b",
          "blockTimestamp": "0x68f0b008",
          "transactionHash": "0x6aac883a7ff58400c73cf5f003379fc7bd510e4fa43c82a3d0d801a0d1e3a4bd",
          "transactionIndex": "0x5a",
          "logIndex": "0x89",
          "removed": false
        },
        {
          "address": "0x4961ddb55265bcd4e230b2aceaf257a745e73de0",
          "topics": [
            "0x64b83944e79c3ce8d4c297411de637c3e102d064677aac0c163976ebdcd6f50e",
            "0x0000000000000000000000005d4a329b262ac7a1d9ae0f4c54171df61e2c0b69"
          ],
          "data": "0x000000000000000000000000000000000000000000002c781f708c509f400000000000000000000000000000000000000000000000000000016345785d8a0000000000000000000000000000000000000000000000000007db151fb875c67049",
          "blockHash": "0xac1661f350b19a629b934258dc43a936787af19d2f972072af87da06f8758fa8",
          "blockNumber": "0x8fc85b",
          "blockTimestamp": "0x68f0b008",
          "transactionHash": "0x6aac883a7ff58400c73cf5f003379fc7bd510e4fa43c82a3d0d801a0d1e3a4bd",
          "transactionIndex": "0x5a",
          "logIndex": "0x8a",
          "removed": false
        }
      ],
      "logsBloom": "0x00000000000000000000000000000000000000000000000000000000000000000000000000000000000000000000000000000000000000000000000000008000000001000000000000400008800000000800000000000000000000000000000000000000000008000000100000000000000000000000000000000010000000000000000000000040000000040000000000000000200000000000000000044000000000000000000000000000000000000000000000000000000000000000000000000002002000000000000000000000000000000000000000000000020000000000800000000000000000000000000000000000000000000000000000000000",
      "type": "0x2",
      "transactionHash": "0x6aac883a7ff58400c73cf5f003379fc7bd510e4fa43c82a3d0d801a0d1e3a4bd",
      "transactionIndex": "0x5a",
      "blockHash": "0xac1661f350b19a629b934258dc43a936787af19d2f972072af87da06f8758fa8",
      "blockNumber": "0x8fc85b",
      "gasUsed": "0x29529",
      "effectiveGasPrice": "0xf424a",
      "from": "0x5d4a329b262ac7a1d9ae0f4c54171df61e2c0b69",
      "to": "0x4961ddb55265bcd4e230b2aceaf257a745e73de0",
      "contractAddress": null
    }
  ],
  "libraries": [],
  "pending": [],
  "returns": {},
  "timestamp": 1760604170469,
  "chain": 11155111,
  "commit": null
}